:020000022000DC
:10220000401100207D2E020071550200AD2E02000B
:10221000AD2E0200AD2E0200AD2E02000000000027
:10222000000000000000000000000000ED2C020093
:10223000AD2E020000000000A52C0200495502004E
:102240003D2E02003D2E02003D2E02003D2E0200DA
:102250003D2E02003D2E02003D2E02003D2E0200CA
:102260003D2E02003D2E02003D2E02003D2E0200BA
:102270003D2E02003D2E02003D2E02003D2E0200AA
:102280003D2E02003D2E02003D2E02003D2E02009A
:102290003D2E02003D2E02003D2E02003D2E02008A
:1022A0003D2E02003D2E02003D2E02003D2E02007A
:1022B0003D2E02003D2E02003D2E02003D2E02006A
:1022C0003D2E02003D2E02003D2E02003D2E02005A
:1022D0003D2E02003D2E02003D2E02003D2E02004A
:1022E0003D2E02003D2E02003D2E02003D2E02003A
:1022F0003D2E02003D2E02003D2E02003D2E02002A
:1023000000000000000000000000000000000000CD
:1023100000000000000000000000000000000000BD
:1023200000000000000000000000000000000000AD
:10233000000000000000000000000000000000009D
:10234000000000000000000000000000000000008D
:10235000000000000000000000000000000000007D
:10236000000000000000000000000000000000006D
:10237000000000000000000000000000000000005D
:10238000000000000000000000000000000000004D
:10239000000000000000000000000000000000003D
:1023A000000000000000000000000000000000002D
:1023B000000000000000000000000000000000001D
:1023C000000000000000000000000000000000000D
:1023D00000000000000000000000000000000000FD
:1023E00000000000000000000000000000000000ED
:1023F00000000000000000000000000000000000DD
:10240000DEE61E284CBBCE8F023400003C000000EC
:10241000944000000100000000220200002202009F
:10242000FFFF02910000000000000000000000001B
:0C243000000000000000000000000000A0
:04243C00FFFFFFFFA0
:1024400053B94AB9002908BF00281CBF4FF0FF311B
:102450004FF0FF3000F074B9ADF1080C6DE904CE17
:1024600000F006F8DDF804E0DDE9022304B070476F
:102470002DE9F047089E04468846002B40F08580F1
:102480008A42154648D9B2FA82F24AB1C2F120070F
:1024900001FA02F320FA07F7954047EA030894404F
:1024A0004FEA154E230CB8FBFEF71FFA85FC0EFB16
:1024B000178843EA084307FB0CF1994209D9EB1846
:1024C00007F1FF3080F0E380994240F2E080023F64
:1024D0002B445B1AA4B2B3FBFEF00EFB103344EAAC
:1024E000034400FB0CFCA44509D92C1900F1FF336F
:1024F00080F0CB80A44540F2C88002382C4440EAEA
:102500000740A4EB0C0400271EB1D4400023C6E909
:1025100000433946BDE8F087002A53D0B2FA82F270
:10252000002A40F0B680491B4FEA154E1FFA85F885
:102530000127B1FBFEFC230C0EFB1C1143EA0143F7
:1025400008FB0CF1994207D9EB180CF1FF3002D2CD
:10255000994200F2EC808446591AA3B2B1FBFEF016
:102560000EFB101443EA044408FB00F8A04507D909
:102570002C1900F1FF3302D2A04500F2DC8018468E
:10258000A4EB080440EA0C40BEE78B4208D9002EB9
:1025900078D00027C6E9000138463946BDE8F08703
:1025A000B3FA83F77FB98B4202D3824200F2BD8037
:1025B000841A61EB030301209846002EA9D0C6E9D6
:1025C0000048A6E7FFDEC7F12005BB4022FA05FC64
:1025D0004CEA030C01FA07F420FA05F821FA05F396
:1025E0004FEA1C4E48EA0404B3FBFEF9210C0EFB33
:1025F00019331FFA8CF841EA034309FB08FA9A459C
:1026000002FA07F200FA07F10BD91CEB030309F1F8
:10261000FF3080F088809A4540F28580A9F1020958
:102620006344A3EB0A03A4B2B3FBFEF00EFB10332A
:1026300044EA034400FB08F8A04508D91CEB040455
:1026400000F1FF336BD2A04569D90238644440EAF7
:102650000940A4EB0804A0FB02894C45C6464B4642
:1026600054D351D0002E69D0B1EB0E0264EB0304B9
:1026700004FA05F522FA07F3FC401D43C6E90054AD
:10268000002746E73746304643E7184637E7074610
:102690001FE7C2F1200320FA03F7954001FA02F088
:1026A00021FA03F34FEA154E3843010CB3FBFEF752
:1026B0001FFA85F80EFB173341EA034107FB08F3C5
:1026C0008B4204FA02F407D9691807F1FF3C28D2BB
:1026D0008B4226D9023F2944CB1A81B2B3FBFEF0CC
:1026E0000EFB103341EA034100FB08F38B4207D98C
:1026F000691800F1FF3C10D28B420ED902382944F0
:10270000C91A40EA074714E74145ABD2B8EB020EBD
:1027100069EB0C0201381346A4E76046F0E718465F
:1027200095E76746D8E781467BE7384645E7ACF151
:10273000020C2B4410E702382C4421E73746E8E628
:10274000704700BF0B6801330B60014B1B681847D3
:10275000400000202DE9F04F85B09B460E9CDFF82D
:102760008890012CB8BF0124012B0CBF30232023FB
:10277000164682468846029301250A270022B6FBA8
:10278000F9F301930AB9B1451DD8019B414603F104
:102790003000D04701350122019B013F012F09FB89
:1027A00013664FF00A03B9FBF3F9E8D1414606F18D
:1027B0003000D047BBF1030F02D1641B002C0EDCAC
:1027C00005B0BDE8F08FBC42E6DBBBF1020FE3D8F9
:1027D0004146029803920135D047039ADCE741460F
:1027E0002020D047013CE9E700CA9A3B014B186022
:1027F000704700BF4000002007B500230193024648
:102800000B46034801A902F0B5FB03B05DF804FBD9
:102810004527020010B50748074C01F0BDFA074BE9
:102820001860204600F0FEFC2046FFF7DFFF002086
:1028300010BD00BF915F020041280200C0010020CE
:102840000A2838B50446074D04D1286883680D214D
:102850005B68984728688368E1B25B6898472046C0
:1028600038BD00BFC0010020F8B5124DEB680C2444
:1028700004FB00340123064663724FF02003EFF39C
:10288000118183F31188BFF36F8F23682BB16068C8
:102890001A682260834208BF626081F31188BFF327
:1028A0006F8F03B9F8BDD3E9017231462846B847A6
:1028B000E3E700BFCC000020154B07B51A6882B1D2
:1028C0004FF08042D2F80423D1070AD500221A60C3
:1028D0001B680093009B0F4BDB68587A08B9FFF721
:1028E000C3FF0D4B1A6882B14FF08042D2F8042327
:1028F00092070AD500221A601B680193019B0120F0
:1029000003B05DF804EBFFF7AFBF03B05DF804FB65
:1029100000010040CC00002004010040821C084B54
:1029200022F07F42C3F84025D3F80425904200D11D
:102930007047D3F80405821C22F07F42F2E700BF03
:1029400000100140044B002282B01A601B68019302
:10295000019B02B0704700BF4011014008B5FFF76E
:10296000F1FF074B074AD3F840051368C01A20F05F
:102970007F4003441360BDE8084002F0DBB800BFAD
:1029800000100140DC01002038B5144801F004FAC1
:1029900000B38368124D1B68012100249847C5F8D5
:1029A0000845FFF7CFFF0F4B4FF40032C3F88021EB
:1029B0004FF48033C5F8043322460121112000F082
:1029C000B5F9112000F0A2F9074A0123136020464F
:1029D0002B6038BD4FF0FF30FBE700BF985F02006F
:1029E0000010014000E100E00810014070B52A4BE2
:1029F0002A4C1968D4F80425294D521AB0F1FF3F2A
:102A000008BF284622F07F43120234D4013820EA5E
:102A1000E070A842A8BF284601334FF4803618441E
:102A2000C4F80863A84294BF0D184D19D4F80405E2
:102A3000D4F84015FFF786FF091A21F07F4120F0F6
:102A40007F430129C4F84035C4F8446304D10F2002
:102A500003F06DF8FFF776FF124B4FF40032C3F826
:102A60008021D4F804052B1A23F07F43012B04D1D5
:102A7000FFF754FF0BE00020CEE725F07F43C4F8BA
:102A80004035D4F804052D1A023D2B02F0D44FF442
:102A90008033C4F8043370BDDC0100200010014015
:102AA000FFFF7F0000E100E04FF02002EFF3118311
:102AB00082F31188BFF36F8F064AD2F80405064AE5
:102AC0001268801A20F07F4083F31188BFF36F8F64
:102AD000704700BF00100140DC010020014802F0F7
:102AE000E1B800BF0C5E020008B530B143683BB1ED
:102AF000006801F051FB002008BD6FF4E040FBE7E7
:102B00000048F9E7EA8FFFFF38B5044618B90B4BC8
:102B10000B485B689847656855B115F00205206859
:102B200007D10146074801F095FA2560002363604C
:102B300038BD1422002102F072FDF7E78C0000205E
:102B4000A85F0200E001002010B5044618B9144B3C
:102B500014485B6898476368CBB92368BBB94FF0EA
:102B6000FF324FF0FF3321460F4801F041FA08B918
:102B700023681BB90A4B0D485B6898471422002153
:102B8000206802F04CFD636843F002036360206834
:102B900002F0F8FE636843F00103636010BD00BFFC
:102BA0008C000020A85F0200E0010020CE5F020040
:102BB00008B568B1436873B100684FF0FF324FF059
:102BC000FF3301F071FA0028044808BF002008BD57
:102BD0006FF4E040FBE70248F9E700BFE98FFFFF31
:102BE000EA8FFFFF08B5064906484023142202F089
:102BF000AEFE05490548BDE8084002F08FB800BFA9
:102C0000FC010020E0010020245E0200145E0200AE
:102C100010B5114C114AA2610323C4E90433104BCF
:102C2000E36122664FF480630E4A236262660023EA
:102C300010220D49A362E01D6362E3622367E3662D
:102C40006367A26602F09BFC0849204602F097FCED
:102C50002023A37110BD00BFFC060020FB5F020013
:102C600038090020280900200460020008600200E2
:102C7000094A0A499368096819670949D8664B687F
:102C800043F080534B60002383F31188BFF36F8FB1
:102C90009368186F704700BFD0080020E05E020004
:102CA00000ED00E00F498A684FF030001044EFF368
:102CB000098C80E8F01F202080F31188BFF36F8F0C
:102CC000094F4FF000664A6A8A603E60D06E00236A
:102CD000D36680F3118802F1300090E8F01F8CF386
:102CE00009887047D008002004ED00E01EF0040FB2
:102CF0000CBFEFF30880EFF30980816911F8021C23
:102D00000229FFD001B502F02FFC01BD43B2002B18
:102D100008DB012200F01F0002FA00F05B09024A02
:102D200042F82300704700BF00E100E043B2002BEF
:102D3000A8BF03F1604301F101014FEA4111AEBFA9
:102D400003F5614300F00F00034BC9B2ACBF83F839
:102D500000131954704700BF14ED00E0C0E91812C9
:102D60000A44203A22F0070208491360009B53608E
:102D7000019B9360029BD3604FF08073D36121F07D
:102D80000101002391610265C36670476F52020022
:102D9000F8B506460C4617461D4600F099F9094B52
:102DA0003C4424F007049E60284684F309880021EF
:102DB00063B681F31188BFF36F8F0022002302F006
:102DC00056FA00BFD0080020014910220A6070475F
:102DD00010ED00E072B6404080F31188BFF36F8FB2
:102DE000BFF34F8F30BF62B6BFF36F8F704700BF26
:102DF00030BFFFF7FDBF00BF0E4A08B50E4B22F0F3
:102E00007F029A60BFF34F8FBFF36F8FD3F8882094
:102E100022F47002C3F88820EFF3148323F0040334
:102E200083F3148800F0F6FF00F0FEFF00F01EF9B7
:102E300001F038F80022020000ED00E001B572B6A2
:102E40000B4A106A00281EBF0021116202F07DFDAE
:102E500062B6EFF30580A0F110004FEAC00005490B
:102E6000014409C99847BDE80140034908470000EB
:102E7000D0080020505C02005130020002F0F4FB48
:102E8000202080F3118808484FF40061401880F337
:102E90000988EFF314800221084380F31488BFF3FC
:102EA0006F8FFFF7A9FF000080120020EFF308806A
:102EB000EFF30981724601B500F04EF801BD00BF85
:102EC0000C4B9A6A9A6A9A6A920708D55A6B9A6A60
:102ED000120604D518B19A6A22F080029A62054B54
:102EE0009A6A9A6A9A6A9A6A002042F0FF029A6283
:102EF0000870704700ED00E00D4B9A6A9A6A9A6A72
:102F0000920508D59A6B9A6A120404D518B19A6A88
:102F100022F400429A62064B9A6A9A6AD20558BF16
:102F20009A6A9A6A002042F47F429A620870704757
:102F300000ED00E0074B9A6A9A6A9A6A9A6A9A6A5E
:102F40009A6A9A6A6FEA02426FEA12429A62002013
:102F5000704700BF00ED00E070B5364B5B688AB08B
:102F6000C3F30803002585F31188BFF36F8F02F0C8
:102F70007F44B4F17F4F12D102F00C04082C0ED024
:102F800014074EBF0E46064601250022033B8DF86E
:102F90000720032B47D8DFE803F0043E423B2E46D0
:102FA000F3E7244BDA6A92073DD4DC6A14F08044DC
:102FB00008D028331B78EBB10DF107010120FFF792
:102FC0007FFF04469DF8073093B92022314602A8BE
:102FD00002F0FBFA099B45B3C3F3080222B96FEA7A
:102FE00053236FEA4323099302A9204602F0BAFA59
:102FF0000AB070BD104B1B782BB10DF107010120F9
:10300000FFF77AFFDDE70D4B1C88A4B2002CD9D066
:10301000FFF790FFD5E70DF107010020CFE70DF195
:1030200007010020ECE70024CCE723F4FF7323F032
:103030000103D8E700ED00E029ED00E02AED00E013
:10304000024A536943F010035361704700ED00E0FA
:10305000044B9968586A884203D003494FF0805264
:103060000A607047D008002004ED00E00448002307
:103070002021C2180133302B82F80013F9D1704798
:1030800000E100E038B505464FF02003EFF311846E
:1030900083F31188BFF36F8F01F06CFA0A4B9B68C2
:1030A000AB420BD1094B5A68C2F3080212B9204651
:1030B000FFF7DEFD5A6842F080525A602046BDE8B4
:1030C000384002F071BC00BFD008002000ED00E0E5
:1030D0001FB5084B0193084B0293084B039301ABB8
:1030E0000093074A074B0121684600F091F805B0AC
:1030F0005DF804FB000000204000000000000B060B
:103100000000002000000420F0B5204F00268E4271
:1031100001DB1046F0BD50F826C0DCF8044094B343
:103120005BB104F1FF3E14EA0E0F1AD11F2C18D91F
:10313000DCF800501EEA050F13D1202CDCF80050FB
:10314000DCF808C0D2B20FD9B4F1004F0ED8013C60
:10315000B4FA84F4C4F11F046400072A4CEA04049E
:1031600006D96FF01502D4E70824F6E73E24F4E709
:1031700025F01F05154345F0100544F00104BA6021
:10318000FD6001323C610136C1E700BF90ED00E017
:10319000034B05225A60BFF34F8FBFF36F8F704709
:1031A00090ED00E0BFF35F8F014B00225A60704743
:1031B00090ED00E013490868082810B51ED8FFF705
:1031C000F1FF114C49680022904201F10C0105D138
:1031D0000E4B1870FFF7DCFF002010BDA26051F805
:1031E0000C3C23F01F03134343F01003E36051F83A
:1031F000043C43F0010323610132E5E74FF0FF3067
:10320000EBE700BF385E020090ED00E0380D0020D3
:1032100010B5034C01232278FFF776FF207010BD14
:10322000380D0020014B1860704700BF640000207B
:103230004FF02003EFF3118283F31188BFF36F8FF8
:1032400006490123C1F840354FF08041C1F8783577
:1032500082F31188BFF36F8F0020704700E00140B8
:103260004FF08043C0B2C3F81C05BFF34F8F054930
:10327000054BCA6802F4E0621343CB60BFF34F8F83
:1032800000BFFDE700ED00E00400FA0520B1034BAC
:10329000800143F001031847704700BFF05D020052
:1032A00008B5094B1A786AB9012119700620052161
:1032B000FFF73CFD0620FFF729FD044B4FF00042CD
:1032C000C3F80423002008BD390D00200060004031
:1032D0002E4B1340B3F5801FF0B5466846D007D893
:1032E000022B45D0062B13D093B16FF015003CE0B4
:1032F000B3F5800F3ED004D825488342F5D107238B
:1033000006E02448834237D0B3F5A00FEDD1032364
:10331000D00654BFC2F34015032582F4807497058C
:10332000C2F34020C4F3002407D512F4006F77687D
:1033300024D001228A40C7F80825327A01F01F0103
:1033400041EA42111F2940EA4400C8BF01F01F01B1
:1033500040EA0323CCBF104A4FF0A04201F5E071D0
:1033600043EA850342F821300020F0BD0123CFE776
:103370000423CDE70223CBE70523C9E7520542BF6B
:1033800001228A40C7F80C25D7E700BF0600F000ED
:103390000600100002004000000300501F2886BFF6
:1033A000074B00F01F004FF0A04303EB8003D3F85E
:1033B000002722F4403242EA0142C3F80027704756
:1033C00000030050F7B54368C7681B7A01F01F057A
:1033D0000E464A49D1F8042345EA4315D2B20023E8
:1033E00003F5A27051F82000C0F3052085426BD18F
:1033F00022FA03F0C00767D59A0002F1804202F575
:10340000C042D2F8100520F00100C2F810050122D8
:1034100002FA03F3C1F8083328460021FFF7BEFF84
:10342000F868F04010F001004CD03869F04010F01E
:10343000010047D0B869F04010F0010450D0FB699A
:10344000F340DB0744D47B6923FA06F616F0010F3C
:1034500014BF01260226294C002101F5A27354F85D
:10346000230010F0030035D18B0003F1804303F5F6
:10347000C0432D02D3F8102522F44F3222F44072BB
:10348000C3F81025D3F8102505F47C5545EA064508
:10349000154301F14002920092B202F1804202F51E
:1034A000C042C3F81055106012680192019AD3F817
:1034B000102542F00102C3F81025012303FA01F19F
:1034C000C4F8041303B0F0BD0133082B88D1A3E77F
:1034D0000326C0E701310829BFD16FF01200F1E7E0
:1034E0007B6923FA06F616F0010F28460CBF03216C
:1034F0000221FFF753FF2046E4E700BF00600040D1
:10350000B2F5A03F70B4C46816D145682E7A01F0B8
:103510001F0545EA46151F2DC6BF05F01F051E4EA7
:103520004FF0A04605F5E07556F82550ED0707D594
:103530006FF0220070BC7047B2F5005FE56826D0DE
:103540000125E6688D4035432669E56001258D40FB
:10355000B2F5005F14BF2E43AE432661A669B2F5F3
:10356000A03FE2690CBF2E43AE43B3F5C02F0CBFA2
:103570002A43AA43E2616269A661B3F5802F0CBFBA
:10358000154322EA0505656170BCFFF71BBF0126E4
:103590008E4025EA0605D7E700030050F0B5002667
:1035A00085B0CDE90266284D2C685CB1274802F051
:1035B000F7F80290264802F0F3F803902E602B688B
:1035C0000093009B234D002201269446D5F8043336
:1035D00006FA02F119421DD0910001F1804101F576
:1035E000C2410B68B3B102F5A27304AF55F82330A2
:1035F000C1F800C0C3F3403007EB8000C3F30423DD
:1036000050F8087C06FA03F33B4340F8083C0B688B
:103610000193019B0132082AD8D1029911B10B48BC
:1036200002F076F8039911B1094802F071F844B13B
:10363000064802F081F8064805B0BDE8F04002F007
:103640007BB805B0F0BD00BF7C6100400C010020DC
:103650001C01002000600040024BD3F88004C3F836
:10366000800470470020004070B54B79012B25D0B5
:10367000032B20D110268B79032B1CD1CC7924B1BC
:10368000012C18D143681B78ABB10A7912B1022A18
:1036900011D10E220B6847F61225AB4263D029D810
:1036A000B3F5965F62D014D8B3F5167F60D007D813
:1036B000B3F5967F5FD06FF0220053E00026DAE783
:1036C000B3F5966F5AD0B3F5166FF4D14FF41D23AE
:1036D0003BE0B3F5615F54D004D8B3F5165FEAD18F
:1036E000314B32E0B3F5964F4ED0B3F5E14FE2D116
:1036F0002E4B2AE0B3F5E13F48D011D84DF6C02556
:10370000AB4245D004D8B3F5164FD4D1284B1CE0BA
:10371000B3F5614F3FD0B3F5963FCCD1254B14E0C4
:10372000B3F5E12F39D008D8B3F5613F37D0224D3A
:10373000AB42C0D14FF0806307E0B3F5612F30D0CA
:103740001E4DAB42B7D14FF080531D4DC5F8243507
:1037500044EA06031343C5F86C35C36803C983E81C
:103760000300002070BD4FF40003EEE7154BECE7BB
:103770004FF41C33E9E74FF4A033E6E74FF49E2300
:10378000E3E74FF46C13E0E70F4BDEE70F4BDCE7AA
:103790004FF46503D9E70E4BD7E70E4BD5E70E4B39
:1037A000D3E70E4BD1E700BF0050270000F07500B3
:1037B00000509D0000903A0190D0030040420F005D
:1037C0000020004000B0130000A04E0000E0D70130
:1037D00000F0EB0000705F0700B0AF0300D0BE0E3A
:1037E000084B1A6882B052B1002018601B68019320
:1037F000019B054BD3F818350B7002B070474FF0A2
:10380000FF30FAE70821004000200040F7B50E46DF
:1038100002F087F91B4DC0B964240127BFF35B8F09
:1038200055E8003F002B03D145E80072002AF7D18C
:10383000BFF35B8F0BD021200021013C01F016F873
:1038400014F0FF04EAD103B0F0BD01232B600E4C4D
:103850000022226022680192019A0C4A0121116023
:10386000C2F814654FF47A76236823B9012002F078
:103870004FF8013EF8D1064B01221A6000232B605D
:10388000E1E700BFE40700201C21004008200040C1
:103890000C2000404FF0A04337B5164C4022C3F82F
:1038A0000825032100220825C3F81817C3F820278C
:1038B000C4F814550625C4F80C552025C3F808553E
:1038C000C3F81417C3F81C270523C4F808350723C9
:1038D000C4F81035C168FFF7C7FE48B90423C4F81F
:1038E0000035054B18601B680193019B0123236081
:1038F00003B030BD0020004008210040F0B54B79F6
:10390000012B27D0032B22D110268B79032B1ED11C
:10391000CC7924B1012C1AD143681B79BBB10A7947
:1039200012B1022A13D10E220B68456847F61227FE
:10393000BB422D6863D029D8B3F5965F62D014D806
:10394000B3F5167F60D007D8B3F5967F5FD06FF0E0
:10395000220053E00026D8E7B3F5966F5AD0B3F5AE
:10396000166FF4D14FF41D233CE0B3F5615F54D0E2
:1039700004D8B3F5165FEAD1334B33E0B3F5964F75
:103980004DD0B3F5E14FE2D1304B2BE0B3F5E13F41
:1039900047D012D84DF6C027BB4245D005D8B3F565
:1039A000164FD4D14FF41D031CE0B3F5614F3ED048
:1039B000B3F5963FCBD1264B14E0B3F5E12F39D0C8
:1039C00008D8B3F5613F38D0224FBB42BFD14FF08A
:1039D000806307E0B3F5612F32D01F4FBB42B6D1F1
:1039E0004FF08053C5F8243544EA06031343C5F865
:1039F0006C35C36803C983E803000020F0BD4FF4B1
:103A00000003EFE7154BEDE74FF41C33EAE74FF403
:103A1000A033E7E74FF49E23E4E7114BE2E7114BB5
:103A2000E0E74FF0EB73DDE74FF46503DAE74FF4BF
:103A30006B03D7E74FF0E863D4E74FF06C73D1E73F
:103A40004FF07063CEE700BF0050270000C0750044
:103A500000903A0190D0030040420F0000B01300E4
:103A600000F03A0000A04E0037B54268134B1468CE
:103A7000C5680422C3F808250322C3F808270022DA
:103A8000C3F804272223C4F80C352123C4F81435C5
:103A90002946FFF733FF78B90823C4F80035C4F886
:103AA0001001D4F810310193019B0C350123C4F8A7
:103AB0003455C4F83835236003B030BD00030050DE
:103AC0002DE9F043214C224E54F8048CDFF8889005
:103AD00085B00025A84503D8002005B0BDE8F083D7
:103AE00096E80700636A1F6801AB83E807000C22B1
:103AF0001946384601F059FD90B98FB1636A2169C2
:103B00001B681A6991420BD19A69A169914207D841
:103B1000E169914204D962695B6932EA03030AD020
:103B2000276A67B10B4801F095FB404080F311888C
:103B30004FF0040002DFE36801351C44CAE7484641
:103B400001F088FB636A1F60F5E700BF3C240200B8
:103B5000D05D0200346002005D6002000A4B1B6809
:103B60005A1C05BF094B0A4A0A4A10680ABF1B784B
:103B70001068C0F30310082B04D103288CBF002069
:103B8000012070470020704730010010E00F00F066
:103B9000E80F00F034010010054B1868043B1B6867
:103BA000082B06BFB0FA80F040090020704700BF24
:103BB0003401001008B5FFF7D1FF40B14FF080434A
:103BC0000022C3F80C21C3F81021C3F83825FFF7F1
:103BD000C5FF002846D04FF08052584BD2F804144D
:103BE000C3F82015D2F80814C3F82415D2F80C1421
:103BF000C3F82815D2F81014C3F82C15D2F81414F1
:103C0000C3F83015D2F81814C3F83415D2F81C14C0
:103C1000C3F84015D2F82014C3F84415D2F8241480
:103C2000C3F84815D2F82814C3F84C15D2F82C1450
:103C3000C3F85015D2F83014C3F85415D2F8341420
:103C4000C3F86015D2F83814C3F86415D2F83C14E0
:103C5000C3F86815D2F84014C3F86C15D2F84424A0
:103C6000C3F87025FFF798FF10B1354B354A1A603D
:103C7000FFF792FF18B1344BFB22C3F81825FFF76A
:103C80008BFF48B13149324B0A681B6822F00F02A2
:103C900003F00F0313430B60FFF77EFF18B12D4BAA
:103CA0004FF400721A60FFF759FF48B14FF080439C
:103CB000D3F80024D20744BF6FF00102C3F80024F8
:103CC0004FF01023D3F80022002A03DBD3F804328C
:103CD000002B2FDA204B0122C3F80425D3F800244F
:103CE000002AFBD04FF010221221C2F80012D3F8A4
:103CF0000024002AFBD04FF010231222C3F8042224
:103D0000154B1A46D3F800140029FBD00021C3F844
:103D10000415D2F80034002BFBD0BFF34F8F0F49AE
:103D20000F4BCA6802F4E0621343CB60BFF34F8FBE
:103D300000BFFDE70B4B0C4A1A6008BD00C00040F5
:103D40008C5600404881030000F00040E40E004023
:103D5000580200104096024000E0014000ED00E0F3
:103D60000400FA05800000200090D003F8B5094B4C
:103D700053F820400130002753F82060A64200D8B5
:103D8000F8BDD4E900352846984708B105B1AF60C1
:103D90000834F3E7CC5E02000F4B70B50F4C0546BC
:103DA0001E469C4204D10D4CB44208D1002410E0C0
:103DB000A26812B12268AA420BD01034F1E7A368BE
:103DC0000BB91034F0E72168284601F0E2FB002827
:103DD000F7D1204670BD00BF3C010020CC00002080
:103DE00008B50B4D4FF02002EFF3118382F31188D9
:103DF000BFF36F8F01F0B3FE012102280446D8BF44
:103E0000084601F0BCFE2C62FEF7E4FFEAE700BFC3
:103E1000D00800200248034A0021121A01F0FFBB1B
:103E2000B80100203C0D002008B50648064A0749A5
:103E3000121A01F0CAFB064A06490748BDE80840C5
:103E400001F0C3BB40000020B4010020206102004B
:103E500040000000E06002000000002008B50C4BAC
:103E6000012202201A70FFF781FF0A4A0A490B4813
:103E700001F0F0F90320FFF779FF00F043FD01F0B6
:103E8000A7FE074A137B23F00103137308BD00BF8D
:103E90003A0D00208F6002009B600200AF600200BC
:103EA0005C0800202DE98048DFF8F490A5B089F384
:103EB0000888344D344E6B69DFF8E8A0DFF8E880FD
:103EC000324F43F4007300246B61E02385F8223005
:103ED000EC772C766C76AC766B6A43F4E0236B62FD
:103EE000FFF7AEF8FEF770FF4FF0FF33AB62EB6207
:103EF000274D40F20113ADF8283007ABAB602046E8
:103F0000CDE91F44FFF732FF0120FFF72FFF4FF0ED
:103F1000010B00F053FC1F4B6E624FF48062414670
:103F2000059330465346CDE9034BCDE90144009457
:103F300000F0C2FC737B304623F00403737301F07E
:103F40004FFD0F23CDE902434FF4A072124B1349EA
:103F50003846CDE904B4CDE9004400F0ADFC7B7BEC
:103F6000EF6023F004037B7305F11803C5E9063302
:103F70002C75C5F8049053464FF480624146304694
:103F8000FEF706FF00ED00E05C080020E8070020D7
:103F9000D0080020D6600200E13D02004011002060
:103FA000801A00205D3E0200400D002070B50E4BCF
:103FB0000E4CA34201D3002070BDD3E9030141EAB6
:103FC000000212F003020BD19D685A61AA4201D18E
:103FD0001C33EEE75E690E60013259610144F5E77A
:103FE0006FF01500E8E700BF3C0100203C01002015
:103FF000D3B50C4616461F464FF02003EFF3118150
:1040000083F31188BFF36F8F43695BB123601B6833
:104010004361836901338361002081F31188BFF319
:104020006F8F11E056EA070203D123606FF00B0097
:10403000F3E70246CDE90067044800F067FB18B9D2
:10404000034B9B685B69236002B0D0BD3B0D002031
:10405000D008002070B504460D464FF02003EFF362
:10406000118683F31188BFF36F8F01F02DFD58B1D6
:104070002A6842610021016701F0B2FC314609481B
:10408000BDE8704001F085BC2B6862691A602B683E
:104090006361A369013BA36186F31188BFF36F8F4E
:1040A00070BD00BF3B0D00202DE9F34104461646CC
:1040B0001F464FF02003EFF3118883F31188BFF3FD
:1040C0006F8FC368324A6BB180689168884219D09B
:1040D00056EA070318D188F31188BFF36F8F6FF08A
:1040E0000F000CE0916891F90E1021610133E3603B
:1040F0009368A36088F31188BFF36F8F002002B02C
:10410000BDE8F0812169F0E790F90E3091F90E10C9
:104110009942A8BF194621EAE17199422CDA00F0D0
:1041200009FB0546CDE9006722464146194800F0E3
:10413000EDFA0028E3D04FF02003EFF3118683F36C
:104140001188BFF36F8F236821699C4207D033B178
:1041500093F90E309942A8BF194621EAE171A0688F
:1041600090F90E30994209D16DB13146094801F0FC
:1041700010FC6FF00A00C2E70025D3E700F0DAFA7E
:104180000028F2D1F0E786F31188BFF36F8FF0E7D4
:10419000D00800203B0D002038B583680446002B72
:1041A00036D01E4A9268934235D1DA7B013ADA73EF
:1041B000C368012B05D0013BC36000F0C3F80020A9
:1041C00038BD4FF02003EFF3118583F31188BFF35F
:1041D0006F8F0169806890F90E30994201D000F02C
:1041E000A9FA204601F070FCA06058B190F90E20A9
:1041F00022610022026701F0F3FB2946084801F022
:10420000C8FBDAE7E06085F31188BFF36F8FD4E76E
:104210006FF01500D4E74FF0FF30D1E7D008002051
:104220003B0D002010B5084C23685BB1FEF73CFC49
:104230002368064A1844106100211846BDE8104062
:1042400001F09DBC10BD00BF08090020D00800206F
:10425000F8B50D464FF02003EFF3118483F3118876
:10426000BFF36F8F0D4B4FF4004140F2E73600274C
:10427000E1FB006700221A6130464FF47A72002396
:104280003946FEF7DDF8064B1860064B1D60FFF758
:10429000C9FF84F31188BFF36F8FF8BDD0080020E9
:1042A00008090020040900204FF02003EFF31181DA
:1042B00083F31188BFF36F8F044B9A68D37B013B64
:1042C000D37381F31188BFF36F8F7047D00800203C
:1042D000094B03F12802824205D19B688B4202D12F
:1042E0004B7BDB0606D1D1E9003213605A60002314
:1042F000C1E90033704700BFD008002070B5104CF2
:10430000064604F1280001F065FBA368597B0546C9
:10431000880644BF41F00801597305B9E5684EB9F4
:104320005A7BD20606D1AA6922B9DA897F2A01D935
:10433000636270BDAB4201D0FFF774FF6562F8E7BE
:10434000D008002010B54FF02003EFF3118483F361
:104350001188BFF36F8F084B9A68D37B0133D373F7
:104360000020FFF7CBFF84F31188BFF36F8FBDE808
:10437000104001F025BB00BFD008002070B4437B83
:10438000DB0627D183692BBB134AD2E90A3402F139
:1043900028018B4218D0BBB190F90E5093F90E60F2
:1043A000AE420CDD5A68C0E9003210605860437BB1
:1043B00063F07F03437370BC0020FFF79FBFA342ED
:1043C00002D01B68002BE9D1C0E90014D36A186041
:1043D000D062ECE770BC7047D008002010B54FF0F9
:1043E0002003EFF3118483F31188BFF36F8F437BB6
:1043F000590704D484F31188BFF36F8F10BD23F0E5
:1044000004034373FFF7BAFF21460248BDE810409A
:1044100001F0BFBA3B0D0020F8B504464FF0200371
:10442000EFF3118583F31188BFF36F8F90F90D308F
:10443000002B03DA01461848FFF74AFF174AD2E972
:104440000A3002F128018B421FD0F3B194F90E60BB
:1044500093F90E70B74213DD5968C4E900310C605E
:104460005C60637B906863F07F036373031B584257
:104470005841FFF743FF85F31188BFF36F8FF8BDF5
:10448000834202D01B68002BE2D1C4E90010D36A3A
:104490001C60D462E5E700BFF8080020D0080020C7
:1044A000154A164938B50C689368A342144603D1DF
:1044B000BDE83840FFF7B6BE00250D601049096819
:1044C000B9B1D9897F2914D80E4993F90E500968DA
:1044D0008D420EDB0C498B420BD0996949B91169A9
:1044E000814203DC1846FFF797FFE1E7091A1161E3
:1044F00038BD00232361FBE7D0080020000900201D
:104500000809002004090020E807002070B50446CF
:10451000183001F00EFB4FF02003EFF3118683F308
:104520001188BFF36F8F94F90D30002B07DA214605
:104530000E48FFF7CDFE637B03F07F0363730C4DE2
:10454000637BA86843F010036373031B5842584110
:10455000FFF7D4FE86F31188BFF36F8FAB68A342D9
:1045600003D1BDE8704001F02BBA70BDF8080020FF
:10457000D0080020836D2DE9F041044603B198472F
:1045800004F1180001F0D5FA4FF02003EFF3118683
:1045900083F31188BFF36F8F637BD80623D1A269A1
:1045A0000ABB190607D521461E48FFF791FE637B1B
:1045B00003F07F0363731C4B9868021B5042504109
:1045C000FFF79CFE637B43F00803637304F1280844
:1045D0000027A56A454500D095B986F31188BFF339
:1045E0006F8FBDE8F0819B07ECD52146A068FFF7EF
:1045F0006FFE637B23F0020363730023A360E1E794
:1046000005F1180001F095FAA8682946FFF760FE49
:104610006B7BAF6023F002036B732F672846FFF7B5
:10462000ADFED6E7F8080020D008002010B590F9BC
:104630000D30002B044607DA01460848FFF748FE14
:10464000637B03F07F036373054B9868031B584239
:104650005841BDE81040FFF751BE00BFF8080020E8
:10466000D0080020F8B5064601F0A3FA34184FF040
:104670002003EFF3118783F31188BFF36F8F0D4D84
:104680000D4BA868186001F0E7F9A8680B4932469D
:10469000F317183000F0D4F9AA68537B43F01003E5
:1046A00053733846FEF7E4FA01F083FA201A20EA41
:1046B000E070F8BDD008002000090020015A020077
:1046C0002DE9F041064614461D464FF02003EFF356
:1046D000118783F31188BFF36F8F01F0CDF987F352
:1046E0001188BFF36F8F6B1C08BFB4F1FF3F08D078
:1046F00022462B4606F118000349BDE8F04100F0C0
:104700009FB9BDE8F08100BF015A020010B5074B08
:104710009868074B0C4618601146DDE90223FFF745
:10472000CFFF2046BDE81040FEF7A2BAD008002017
:10473000000900202DE9F04104464FF02003EFF37B
:10474000118883F31188BFF36F8F437BDB064EB272
:104750002ED1836963BB184D05F128070146384601
:10476000FFF7B6FDAB6AA673BB422A4619D0C3B1A8
:10477000E96A93F90E00B0420EDD5A68C4E90032CE
:1047800014605C600120FFF7B9FD012088F31188F7
:10479000BFF36F8FBDE8F081994202D01B68002BF8
:1047A000E7D1D36A6360D36A27601C60D462E9E70B
:1047B000A6730020EAE700BFD0080020044B0021C8
:1047C00003F12802C3E90A220846FFF741BD00BFF2
:1047D000D0080020F8B5234C234BA2689A4229D078
:1047E0004FF02003EFF3118683F31188BFF36F8F2F
:1047F00004F12805A1682846FFF76AFDA26AA368AC
:10480000AA4228D03AB3E06A93F90E1092F90E70DA
:104810008F421BDD5168C3E900210B6053605A7B56
:1048200062F07F025A730120FFF768FD86F311885A
:10483000BFF36F8F4FF02003EFF3118083F31188E4
:10484000BFF36F8FBDE8F840FEF712BA824202D084
:104850001268002ADAD1E26A5A60E26A1D601360C7
:10486000E362DCE7D0080020E8070020013108BF40
:10487000B0F1FF3F10B506D10B4B9868FFF746FE2D
:104880004FF0FF3010BD044648B9FFF7A3FF4FF4C7
:104890007A7084FB0034D80B40EA4440F2E7FFF71B
:1048A000E1FE0446F3E700BFD0080020014B986802
:1048B000704700BFD0080020F0B587B0DDE90F6772
:1048C00000F128058673CDE903670E9E0296C0E9C4
:1048D0000A550D9E0196042545730C9E077300250D
:1048E000C573C0E9065500960446FEF737FA044B37
:1048F0009B68C4E9155503B19B6EA36607B0F0BD74
:10490000D00800202DE9F04FDFF8BC902C4D89B085
:10491000C8464D4505F130040FD3FFF7C5FC284CC0
:104920004FF4004940F2E73A4FF0000B444521D3E1
:1049300009B0BDE8F04FFFF705BD54F8043C0593FE
:1049400054F8103C049354F8143C039354F8183C66
:10495000029354F81C3C019354F8203C009354E912
:104960000A2354E90C01FFF7A7FF54F8303C5D65BA
:104970002546CEE7616A4B1C17D021EAE171564605
:104980005F46C9FB01674FF47A720023304639460F
:10499000FDF756FD002306900793DDE90623134338
:1049A000256804D12846FFF719FD3034BEE7DDE95C
:1049B0000623044905F1180000F042F8F5E700BFAE
:1049C0003C010020015A02003C010020034B1B68FF
:1049D0000BB9FEF769B80020704700BF0C09002032
:1049E000036840B1074A5268904204D01BB19A68EC
:1049F00081680A449A60426813605A600023C0E9E3
:104A000000337047840000200B4B10B51C689C429B
:104A100008BF0024FFF7DAFF54B1A368181A20EA90
:104A2000E070064B1B6913B19842A8BF184610BD31
:104A30006FF00040F5E700BF84000020D0080020A0
:104A40002DE9F74F0191591C08BFB2F1FF3F824693
:104A500061D0541C43F100056FF00103B3EB04086F
:104A60004FF0FF3B6BEB0509B8F1000F79F1000344
:104A70000FDBFFF7ABFF2D4AD2E9001C6FF00103FB
:104A80005B1A6BEB0C021E1B62EB0507341A67EB1B
:104A9000E075019BCAF80C304FF02003EFF311864C
:104AA00083F31188BFF36F8FFFF790FF012C75F12F
:104AB00000031F4B1A68B8BF012404449A42CAF885
:104AC000084001D05C6852B95A68CAF804205A6894
:104AD000CAF80030C2F800A0C3F804A00DE0906846
:104AE000DAF80810884219DD411A91605168CAE964
:104AF0000021C1F800A0C2F804A01A689A4206D0AA
:104B0000924504D1FFF780FF0021FDF76FFF86F388
:104B10001188BFF36F8F03B0BDE8F08F091AA2426E
:104B2000CAF80810D0D01268CDE700BFB801002045
:104B3000840000202DE9F04B0446FFF7B1FC4FF054
:104B40002003EFF3118583F31188BFF36F8F214E9C
:104B5000214FDFF888903460B846D9F800403268B9
:104B60004C45D7E900BC05D024B1A368934214DDBD
:104B70009B1AA3601BEB02004CEBE2710024C8E916
:104B800000013460FFF740FF2146FDF72FFF85F35A
:104B90001188BFF36F8FBDE8F08B1BEB03004CEB6C
:104BA000E371D31A33600023C7E90001A3602046F4
:104BB000FFF716FF85F31188BFF36F8FE3689847FF
:104BC0004FF02003EFF3118583F31188BFF36F8F4C
:104BD000C3E700BF0C090020B801002084000020BA
:104BE0002DE918484FF02003EFF3118483F3118867
:104BF000BFF36F8FFDF758FF074BD3E9002312EB8C
:104C0000000B43F1000C5846614684F31188BFF352
:104C10006F8FBDE8188800BFB801002038B5064C7A
:104C2000064DAC4201D3002038BDD4E90112204624
:104C300000F0C3FF1434F4E73C0100203C010020E5
:104C400010B5094C23681BB101232360002010BD5F
:104C500000F080F80028F7D00138062896BF034BF3
:104C6000034853F8200010BD10090020E45E020044
:104C7000FE8FFFFFBFF34F8F0549064BCA6802F452
:104C8000E0621343CB60BFF34F8F00BFFDE700BF6F
:104C900000ED00E00400FA05014B5B68184700BF17
:104CA0008C000020D0E90012014BC3E900127047CC
:104CB0008C000020704700BF10B5044620B1BFF340
:104CC0005F8F0020206010BD0348FFF7E5FFBFF3B2
:104CD0005F8F0020206010BD245F020010B50446E5
:104CE00010B10023236010BD0248FFF7D5FF002359
:104CF000236010BD005F020070B10122BFF35B8F23
:104D000050E8003F40E800210029F9D1BFF35B8F54
:104D1000012BF3D0BFF35F8F0020704770B4D0E950
:104D20000065D0E90242094BC3E90242C3E90065CC
:104D3000D1E90240D1E90065054B0A691A61C3E96E
:104D40000065C3E9024070BC704700BF94000020BA
:104D5000A400002010B500F033F870B900F03AF864
:104D600080B900F0B5F880B9114B1B681B0EF02B11
:104D70000DD0062400F026F800E0032400F058F8D7
:104D8000204610BD0424204610BD0024F2E7094A45
:104D9000094B12689A4201D00724EBE7012000F08A
:104DA00097F80028F1D1054B04461860E8E700BFEA
:104DB00028B9025024BA02500000E0200CBA025078
:104DC0000020704700207047014B1860704700BFFB
:104DD00004BA025010B5114800F048F800B110BDF7
:104DE0000F4800F043F80028F9D10E4C204600F09F
:104DF0003DF80028F3D10C4B0C481C6000F036F84D
:104E000001460028EBD100F02DF8044608B12046F9
:104E100010BD00F03FF82046FAE700BFC4000020B4
:104E2000B8000020C0000020C8000020BC00002006
:104E300008B5084800F024F8074800F021F80748B2
:104E400000F01EF8064800F01BF8BDE8084000F02E
:104E50000BB800BFC4000020B8000020C000002034
:104E6000BC00002000207047704700BF08B5034B0E
:104E700002681B6810689847002008BD9400002055
:104E800008B5034B02685B6810689847002008BDAE
:104E90009400002070B5094C094D2069AB68984713
:104EA00018B1084B08485B689847084AEB682069C6
:104EB00000211160BDE87040184700BFA400002029
:104EC000940000208C000020445F02002409002090
:104ED000F8B51A4C1A4D0746AB6820699847E8B9EF
:104EE000184E33687FB93BB9174A18490120C2F8F8
:104EF00000050A68002AFCD101333360EB682069A1
:104F000098470020F8BD002BF8D0012B08D0013BBA
:104F100033602069EB6898470020F3E70C48F8BD40
:104F20000A4A1368002BFCD1074A6FF07E40C2F892
:104F30000035FFF749FF3368E9E700BFA400002010
:104F4000940000202409002000A0025010B9025053
:104F5000E98FFFFF0020704770B504460D464520DD
:104F6000A04729465220A047294623465220BDE8A3
:104F7000704018472DE9F04F8BB01C464FF00008E9
:104F8000531E06460F4602934FF0FF3AC1460025D6
:104F900005E06DB9252800F04F813946B047029BE6
:104FA00013F8010F02930028F3D10BB0BDE8F08F86
:104FB00064286ED01AD839280AD8312860D22D2812
:104FC00000F0408130284CD0252807D139460BE02D
:104FD000582800F0BB80632800F02A81394625203C
:104FE000B047029B18783946B047D0E7702800F0E8
:104FF000A38011D869284CD06C2805D1B8F16C0F6A
:105000002AD14FF04C08CAE76828E7D1B8F1680FF9
:1050100022D14FF04808C2E7752871D018D87328FC
:10502000DCD154F8045BAB465B461BF8010B00284F
:1050300040F0FB80B9F1030F40F00A815D1BAAEB41
:105040000505002DA3DD39462020B047013DF8E7D6
:1050500078287BD07A28C1D1B8F1000FBED1804624
:105060009DE7BAF1000F0EDAB9F1000F00F0ED8004
:10507000A0F1300AB9F1000F08BF4FF002098EE726
:10508000BAF1000FF4DB0A2303FB0A0AAAF1300A83
:10509000F0E7B8F17A0F02D154F8045B1FE0B8F1E1
:1050A0006C0FF9D0B8F14C0FF6D1073424F0070497
:1050B000F4E8022312F10041069143F10001079147
:1050C000DDE906BC00214FF0FF30614508BF5845BF
:1050D00004D239463046FFF73FFF58E71546002D0A
:1050E00005DA39462D20B0476D420AF1FF3ACDF876
:1050F00000A04B462A4639463046FDF72BFB46E7D3
:10510000B8F17A0F02D154F8042B11E0B8F16C0F0A
:10511000F9D0B8F14C0FF6D1073424F00704F4E8C5
:10512000022300214FF0FF30994208BF9042D0D3B4
:10513000CDF800A04B46DEE739463020B04739466F
:105140007820B0474FF0080A4FF00109029B1B7806
:10515000702B04D154F8043B049300230DE0B8F104
:105160006C0FF7D0B8F14C0FF4D1073424F00703DB
:105170001C465B6854F8082B04920021102203910E
:1051800005914FF0400BABF1040B0498CBF1200CD0
:10519000ABF1200120FA0BF003FA0CFC40EA0C0002
:1051A00023FA01F1084310F00F0008D1059911B955
:1051B000BBF1000F24D1302105E00595E3E7092874
:1051C0008CBF57213021084440B2394608930592DC
:1051D000B047039B059A01330393089BBBF1000F73
:1051E000EBD1B9F1030F7FF4D2AE039BC3EB4A05B9
:1051F000002D7FF7CCAE39462020B047013DF7E7C0
:10520000511E9245089107DBB9F1010F06D10993B0
:1052100039463020B047099B089AB4E7B9F1020F2C
:10522000FAD1099339462020F4E73946B047FBE626
:10523000394654F8040BD7E6A846A9464FF0FF3A82
:105240000125ACE64FF00309A9E64FF00109A6E6F7
:105250000546A4E60FB407B504A951F8040B019163
:10526000FDF7CAFA03B05DF804EB04B070470446DA
:1052700008B5084611461A46A047FFF717FBFDF789
:1052800001FF036803EBC1018368B3F5004F2CBF36
:1052900051F8220031F81200704710B50468806898
:1052A00004EBC101B0F5004F2CBF41F8223021F8CA
:1052B000123010BD2DE9F041002204460D46FFF7E3
:1052C000E0FFE3681840A368B3F5004FB0FA80F23E
:1052D00034BF002001206368C0F11F00801A03EB77
:1052E000C0014A68561C4E60A2B9012202FA00F1C0
:1052F00062690A436261294643F8305002222B4614
:105300002046FFF7CAFF032229462046BDE8F041A8
:10531000FFF7C3BF53F83060022231462046FFF743
:10532000B0FF02220346074629462046FFF7B5FF95
:105330003346032229462046FFF7AFFF03223946B2
:105340002B462046FFF7A9FF02223146DDE7F8B5DC
:10535000CC1D114424F0070421F00701091BCB08E0
:10536000B1F5802F47F6FF722CBF6FF00041114658
:1053700093420460E16094BF00210121B3FA83F6F7
:10538000C1F1200104F11805891B21F06041C4E935
:105390000153002003312460606121611746844677
:1053A000A268BA4294BF00220122C2F11F02921BDE
:1053B00090420ADD5B1A20460022FFF76EFF21694A
:1053C0002046BDE8F840FFF775BFC5F804C00130BE
:1053D00045F808CBE4E77047C368C9B20C2202FB6A
:1053E00001314B7A23B9087AB0FA80F0400970474E
:1053F0000220704770B5C9B24468C5684FF02003F9
:10540000EFF3118683F31188BFF36F8F0C224A43A9
:10541000AB18187A90B10138C0B2187288B904EB91
:105420008104A850E278586002F1804201211160A5
:10543000587286F31188BFF36F8F70BD6FF0440010
:10544000F7E70020F5E72DE9F8434668D0F80CE0CF
:10545000CFB24AB10C237B435EF803309A4252D05C
:1054600013B11B68002BF9D14FF02003EFF3118C1F
:1054700083F31188BFF36F8F0C257D430EEB05037B
:105480001C7A0134E4B21C728CF31188BFF36F8F65
:105490005AB34FF0804C4FF00308CCF8088393F8D0
:1054A00009C0BCF1000F15D14FF02008EFF31189AE
:1054B00088F31188BFF36F8FC2F800C0D3F804805F
:1054C000B8F1000F1BD15A604EF8052089F31188FE
:1054D000BFF36F8F4FF080430325C3F80453BCF133
:1054E000000F02D0D2E901329847012C05D106EB1A
:1054F0008706B37803F180431C60002005E0C8F8FC
:1055000000205A60E2E76FF00F00BDE8F883002248
:10551000FFF799BF002210B5012104461046FDF7A0
:1055200005FC0020FDF7F2FB4FF080430122C3F899
:1055300018250322C3F80423E3680020C3E9000010
:10554000E368C3E9030010BD70477047FEE7FDF74D
:105550005FBB08B5FFF7FBFF002008BD002101205D
:1055600000F000B800F0D6B90146006800F0D2B9EA
:1055700008B5FDF73DFCBDE80840FDF769BD013900
:10558000034611F8012F0AB91A70704703F8012B6E
:10559000F7E70138013910F8013F11F8012F934264
:1055A00001D1002BF7D1981A704710B55AB10139C3
:1055B000841810F8012B11F8013FA04201D09A4243
:1055C000F7D0D01A10BD1046FCE7F0B581EA000410
:1055D000A50703460BD0013B0A4491421AD1F0BD06
:1055E000002AFCD011F8014B03F8014B013A9C074B
:1055F000F6D19508AC001E1F0F19B94205D16FF006
:10560000030606FB05222344E5E751F804CB46F8E0
:1056100004CFF2E711F8014B03F8014FDDE770B555
:10562000C9B203469C0710D141EA012444EA04456B
:10563000940803EB8406B3420DD16FF0030505FB1C
:1056400004241C44A34209D170BD002AFCD003F8F5
:10565000011B013AE6E743F8045BECE703F8011BA2
:10566000F0E74FF0FF307047FEF7A4BA43685B687D
:10567000D3F810350B600020704743685B68D3F89F
:10568000040542400A404240C3F804250020704708
:1056900043685B680020C3F80815704743685B687F
:1056A0000020C3F80C15704743685A68D2F80435D7
:1056B0005940C2F8041500207047C368586830B5D7
:1056C00058B10024814213D108685CB99C685860C5
:1056D000A14200D198600020086072B9002030BD5E
:1056E0002846EFE720609868814208BF9C60F2E797
:1056F00005680446002DF3D13AB15A680A609868EB
:1057000059600028EAD19960E9E76FF01500E6E7F3
:10571000F8B5C5680F466968064661B10C688A68C5
:105720002B693A401A4202D04B683046984714B170
:1057300021462468F3E7F8BD2DE9F041C568D0F8AB
:105740000480D5E903341C40D5E90632134324EA2A
:105750000304012700260CB9BDE8F081274210D0D0
:105760006B6998F80820F34013F0010F06F01F0052
:105770000CBF0321022140EA4210FDF70FFE24EA8C
:10578000070401367F00E6E710B4C468012303FA7A
:1057900001F2236923EA0203236110BCFDF712BE64
:1057A000C3682DE9F041D3E903241440D3E906216D
:1057B000D0F804805B690A4324EA0204D8F8042084
:1057C000D2F810555D4024EA05050126002714B9DA
:1057D0002846BDE8F08134420AD098F8083007F036
:1057E0001F00002140EA4310FDF7D8FD24EA06041B
:1057F00001377600EBE710B4C468012303FA01F225
:1058000023691343236110BCFDF7DCBDC2680B465E
:1058100092E8030083E8030000207047C2680B464B
:1058200092E8030083E803000020704743681B6888
:10583000D3F88004C3F8800470472DE9FF41436822
:105840008DF807101C68C66800F06BF9E0B9642594
:1058500006F108074FF00108BFF35B8F57E8003FE0
:10586000002B03D147E80082002AF7D1BFF35B8FFA
:105870000CD021200021013DFEF7F8FF15F0FF05B7
:10588000EAD104B0BDE8F0810123B3600023C4F87D
:105890002031D4F820310393039B0DF10703C4F8A2
:1058A00044350123C4F848354FF47A75A360D4F821
:1058B000203123B9012000F02BF8013DF7D101235D
:1058C000E3600023B360DCE74368C2681B68D3F879
:1058D000100182B060B1127B0A700020C3F8100181
:1058E000D3F810210192019A01221A6002B0704788
:1058F0004FF0FF30FAE708B50020FDF7B1FC08B51E
:10590000FDF7ECF8FDF76EF9BDE80840FFF798B930
:1059100000F00DB9F8B506460F464FF02003EFF33F
:10592000118583F31188BFF36F8FFEF7BFFF3946F0
:1059300004463046FFF7DFFF85F31188BFF36F8F12
:105940002046BDE8F840FDF79DBBFFF7FEBD30B532
:105950000024846141EA020414F00304C0E9023225
:1059600001610CD14461A34203D1C0E900000020D1
:1059700030BD45690D60013441611144F3E76FF0BA
:105980001500F5E703460020C3E90200C3E9003330
:10599000704721B9EFF3058008B9FDF769B981F3C4
:1059A0001188BFF36F8F7047034620B9EFF305826C
:1059B0000AB9FDF75DB983F31188BFF36F8F7047A4
:1059C0004FF02003EFF3118083F31188BFF36F8F43
:1059D000FFF7EABF0368984214BF184600207047DB
:1059E00010B54FF02003EFF3118483F31188BFF358
:1059F0006F8FFEF7C3FC84F31188BFF36F8F10BD68
:105A000050F8103C70B50446A0F11805CBB14FF02A
:105A10002003EFF3118683F31188BFF36F8F2946BC
:105A200050F8100CFEF754FC14F80B3C23F0020362
:105A300004F80B3C002344F8103C86F31188BFF3B4
:105A40006F8F14F80B3C23F0140304F80B3C28462A
:105A5000BDE87040FFF7C4BF10B54FF02003EFF36F
:105A6000118483F31188BFF36F8FFEF7DFFD84F39A
:105A70001188BFF36F8F10BD38B504460D46FEF791
:105A8000D5FD637B43F0020363737DB12B68A56092
:105A90009D4212D08BB194F90E2093F90E109142D1
:105AA00005DD5A68C4E9003214605C6038BD69687D
:105AB0008B4202D01B68002BEFD16B6863606B6870
:105AC00025601C606C60F1E738B54FF02003EFF300
:105AD000118283F31188BFF36F8FFFF77BFF0446BA
:105AE00082F31188BFF36F8FC8B14FF02003EFF33B
:105AF000118583F31188BFF36F8F01468068FEF72D
:105B0000E7FB637B23F0020363730023A36085F349
:105B10001188BFF36F8F04F1180000F00AF82046D7
:105B200038BDEFF30580003018BF01207047FDF746
:105B3000ADBB10B54FF02002EFF3118482F3118852
:105B4000BFF36F8F03683BB1FEF74AFF002084F379
:105B50001188BFF36F8F10BD6FF01500F7E710B518
:105B60004FF02003EFF3118483F31188BFF36F8F9D
:105B7000FEF74AFF84F31188BFF36F8F10BD70B535
:105B800004460E464FF02003EFF3118583F311888E
:105B9000BFF36F8FFEF738FF012805DDA04203DD5C
:105BA00031462046FCF722FF85F31188BFF36F8F43
:105BB00070BD08B5FFF714F808BD10B400F10C046F
:105BC000C0E9034410BCFFF7C2BB704700000000EF
:085BD0005FF800F00100002065
:085BD80098C8FF7F01000000E6
:105BE00031320200000000005355020000000000A6
:105BF000AD3F0200000000001D4C0200000000004C
:105C0000B53102000000000015550200CC00002054
:105C100095380200DC000020693A0200EC00002008
:105C2000152802000000000089290200FC00002065
:105C3000A13202001C010020A13202000C01002050
:105C4000FF5802002C010020C13A020000000000B1
:105C500000000000B9280200000000005D550200AD
:105C6000000000005D550200000000005D550200CC
:105C7000000000005D550200000000005D550200BC
:105C8000000000009D350200000000005D5502008C
:105C9000000000005D550200000000005D5502009C
:105CA000000000005D550200000000005D5502008C
:105CB000000000005D550200000000005D5502007C
:105CC000000000005D550200000000005D5502006C
:105CD000000000005D550200000000005D29020088
:105CE000000000005D550200000000005D5502004C
:105CF000000000005D550200000000005D5502003C
:105D0000000000005D550200000000005D5502002B
:105D1000000000005D550200000000005D5502001B
:105D2000000000005D550200000000005D5502000B
:105D3000000000005D550200000000005D550200FB
:105D4000000000005D550200000000005D550200EB
:105D5000000000005D550200000000005D550200DB
:105D6000000000005D550200000000005D550200CB
:105D7000000000005D550200000000005D550200BB
:105D8000000000005D550200000000005D550200AB
:105D9000000000005D550200000000005D5502009B
:105DA000000000005D550200000000005D5502008B
:105DB000000000005D550200000000005D5502007B
:105DC000000000005D550200000000005D5502006B
:105DD000DEE61E28EAAC45B802340000DEE61E28E6
:105DE0004CBBCE8F02340000000000000000000019
:105DF0000338FDD8704700000F550200F55302002C
:105E00004754020000000000D953020000000000C7
:105E10004D550200492B0200092B0200B12B020054
:105E2000E92A02005C000020440000205400002009
:105E3000000000004C00002002000000405E020054
:105E4000000000000F600200260002070000002092
:105E50001760020022000B11D13202006D560200C1
:105E60007B560200915602009D560200A956020080
:105E700001350200BB560200F757020089570200A5
:105E800000000000FFFFFFFF0000005000000000C6
:105E9000FFFF00000003005001000000E137020096
:105EA0000D38020059360200693602000D58020012
:105EB000C95802003B5802002D580200FD3802006C
:105EC0001D5802000080024000000000E05B02005C
:105ED000285C0200305C0200505C0200505C020052
:105EE000F5FFFFFFFF8FFFFFFF8FFFFFFE8FFFFF1D
:105EF000FE8FFFFFFD8FFFFFFC8FFFFFFC8FFFFF7B
:105F000043616E277420696E697469616C697A6592
:105F1000206D757465782C20776173204E554C4C3C
:105F20000D0A000043616E277420756E6C6F636B01
:105F3000206D757465782C20776173204E554C4C1C
:105F40000D0A0000436F756C64206E6F74206C6FD7
:105F5000636B20706F7765722073617665206D7555
:105F600074657800000100040401080C6E72663547
:105F700032383430646B5F6E7266353238343000DC
:105F800048656C6C6F20576F726C64212025730A12
:105F900000554152545F3000434C4F434B007379DE
:105FA000735F636C6F636B006D757465785F696EAA
:105FB00069742063616C6C65642077697468204E35
:105FC000554C4C20706172616D6574657200436F51
:105FD000756C64206E6F7420616C6C6F63617465A6
:105FE000206D75746578206265666F726520696ED4
:105FF000697469616C697A696E67005465726D696C
:106000006E616C0052545400534547474552004658
:106010004C4153485F30005352414D5F3000475070
:10602000494F5F31004750494F5F300001554152A1
:10603000545F31004552524F523A2043616E6E6FA9
:10604000742066756C66696C6C204558545F4150CD
:106050004920726571756573742E0D0A005741529F
:106060004E494E473A204F7074696F6E616C2045FF
:1060700058545F4150492072657175657374206E84
:106080006F742066756C66696C6C65642E0D0A0011
:1060900048575F43433331305F300076322E332E22
:1060A000302D7263312D6E6373312D726333002A8C
:1060B0002A2A20426F6F74696E67205A657068796A
:1060C00072204F53206275696C64202573202573FC
:1060D000202A2A2A0A006D61696E00000020020051
:1060E0000149024800F004B86C5F0200805F0200C2
:1060F0005FF800F0555202000000000000000000B0
:10610000000000000000000000000000000000008F
:10611000000000000000000000000000000000007F
:10612000554F0200500100200100000064010020D2
:106130000100000078010020010000008C01002017
:10614000010000006356020000C2010000010300CC
:1061500000C2010000010300000000000000000078
:106160000090D00384000020840000200000000084
:10617000754C0200DD4C0200B54C0200F94C0200E7
:10618000B94C020020090020140900201C0900203D
:106190000000000018090020A8000020B400002022
:0C61A000AC000020A4000020C000002083
:1061AC00985F0200645F0200F85D0200C4010020E9
:1061BC00915F02002C6002009C5E020068000020CF
:1061CC002D600200C45E0200B05E02007000002070
:1061DC009E5F0200000000000000000000000000B4
:1061EC0025600200845E0200585E0200A4070020B5
:1061FC001E600200905E0200585E0200C407002080
:10620C009060020000000000000000000000000090
:10621C003C0100203C0100200000000000000000B8
:10622C000F00000050010020500100200000000071
:10623C00000000000F000000640100206401002039
:10624C0000000000000000000F000000780100209A
:10625C007801002000000000000000000F0000008A
:10626C008C0100208C0100200000000000000000C8
:10627C000F000000A0010020A00100200000000081
:08628C00000000000F000000FB
:0400000320002E7D2E
:00000001FF
